:100000000C9450000C946E000C946E000C946E00D6
:100010000C946E000C946E000C946E000C944805C9
:100020000C946E000C946E000C946E000C946E0098
:100030000C946E000C946E000C94CC030C946E0027
:100040000C946E000C946E000C946E000C946E0078
:100050000C946E000C9406030C946E000C946E00CD
:100060000C946E000C946E00000000000000000074
:100070000000000000000000000000000000000080
:10008000000000000000000004B6E704B6D304B688
:10009000C704B6C302900703AC8103AC8002900092
:1000A00011241FBECFEFD8E0DEBFCDBF14BE0FB608
:1000B000F894A89580916000886180936000109208
:1000C00060000FBE22E0A0E0B1E001C01D92AE31A1
:1000D000B207E1F70E9466050C94D9050C949105CE
:1000E0001F93CF93DF931F92CDB7DEB7182F2A98B7
:1000F00082E069830E941202812F0E9412026981AC
:10010000862F0E9412022A9A0F90DF91CF911F91A1
:100110000895CF93C82F2A9883E00E9412028C2F53
:100120000E9412028FEF0E9412022A9ACF91089524
:100130001F93CF93DF9300D0CDB7DEB7182F2A9847
:1001400085E04A8369830E941202812F0E94120275
:100150006981862F0E9412024A81842F0E94120216
:100160002A9A0F900F90DF91CF911F9108952A98AE
:100170000E9412028FEF0E9412022A9A0895EF92B3
:10018000FF920F931F93CF93DF93082F883010F0C7
:1001900080E05FC02A9A229A2D982B982C98259A55
:1001A000239A24980E940D022A9880EC0E94120241
:1001B0008FE99FE00197F1F700C000002A9A8FE3D2
:1001C0009CE90197F1F700C000002A9882E00E94A4
:1001D000120288E20E94120210E0E801CC0FDD1F3B
:1001E000C00FD11FE12CF12CC857DF4FFE01EE0DDF
:1001F000FF1D84910E9412029FEFE91AF90A83E021
:10020000E816F10499F783E00E9412022A9A60E04E
:100210008DE00E9470002098289A60E08CE00E9497
:10022000700089E20E948900D82FF801EE0FFF1FAD
:10023000E00FF11FE757FF4FC49160E08FE00E948D
:100240007000DC13A5CF8EE00E948900807ED9F774
:1002500081E0DF91CF911F910F91FF90EF90089572
:1002600083B180958170089580EA0E94B700982F2D
:10027000947581E0943509F480E00895DF92EF925F
:10028000FF920F931F93CF93DF93EC0180EB0E94BB
:10029000B700E82E8074F82EE6FC04C0E7FE43C0E9
:1002A00084E901C080E92A980E941202CE010E94CE
:1002B000D70180FF0FC02A9A40E0FF2031F061E0B3
:1002C0008CE20E949800F12C2EC062E08CE20E9429
:1002D000980029C08FEF0E941202E3FA222720F92A
:1002E0009A8120FB90F99A838F70D82E8B8300E03F
:1002F00010E00D1550F48FEF0E941202FE01E00F86
:10030000F11F84830F5F1F4FF4CF2A9A40E0FF2034
:1003100011F061E001C062E08CE20E9498008E2D35
:100320008770F82EF3948F2DDF91CF911F910F914D
:10033000FF90EF90DF9008950F931F93CF93DF937B
:10034000EC0140E860EE8FE00E9498008EE00E9491
:100350008900807E8038D1F764E080E60E947000DA
:1003600060E080E70E94700010E02A9882E00E941E
:100370001202812F0E94120200E0103211F40830A4
:1003800048F42196FE01319784910E9412020F5F7A
:100390000C3099F72A9A105F103339F740E060EE7D
:1003A0008FE0DF91CF911F910F910C9498001F93D4
:1003B000CF93DF93EC018FEF0E941202182F8FEF83
:1003C0000E941202982F8FEF93FF07C00E94120223
:1003D0008FEF0E94120281E01CC08EBD88E0189F42
:1003E00090011124398328830DB407FEFDCF8EB50B
:1003F0008FEF8EBD8881292F229526952770822B1D
:1004000088830DB407FEFDCF8EB5892F807194FDD2
:1004100082E0DF91CF911F91089581E58CBD81E04D
:100420008DBD08958EBD0DB407FEFDCF8EB5089528
:1004300020E230E080E090E0AFEAB1E04C91F901D9
:10044000E40FF11DEF71FF27E155FE4F4281840F4C
:10045000911D2150310991F7969587959295829536
:100460008F7089279F7089278093D101089520E29A
:1004700030E080E090E0A3E2B1E04C91F901E40FBC
:10048000F11DEF71FF27ED5DFE4F4281840F911D3D
:100490002150310991F796958795929582958F70A5
:1004A00089279F70892780934501089520E230E0D5
:1004B00080E090E0A6E4B1E04C91F901E40FF11D79
:1004C000EF71FF27EA5BFE4F4281840F911D21509F
:1004D000310991F796958795929582958F70892726
:1004E0009F70892780938B01089520E230E080E09F
:1004F00090E0ADE8B1E04C91F901E40FF11DEF712E
:10050000FF27E357FE4F4281840F911D215031098F
:1005100091F796958795929582958F7089279F7010
:1005200089278093D201089520E230E080E090E0B6
:10053000A9E6B1E04C91F901E40FF11DEF71FF273D
:10054000E759FE4F4281840F911D2150310991F7E7
:1005500096958795929582958F7089279F708927A8
:1005600080936801089520E230E080E090E0A1E00F
:10057000B1E04C91F901E40FF11DEF71FF27EF5F3E
:10058000FE4F4281840F911D2150310991F79695BC
:100590008795929582958F7089279F708927809380
:1005A0008C010895CF93DF931F92CDB7DEB7898377
:1005B000898180930001ECE7F0E080819091000157
:1005C000887F892B8083809100010F90DF91CF91EC
:1005D000089518B817B887E080937E0080E680936E
:1005E0007C0083E080937B0081E00E94D2028FEE4A
:1005F00080937A0082E084BD84E085BD84E187BD7C
:10060000EEE6F0E080818260808308951F920F9271
:100610000FB60F9211242F933F934F935F936F93D5
:100620007F938F939F93AF93BF93EF93FF938091AB
:100630000001823009F43FC028F4882361F0813042
:1006400011F193C0843009F466C008F44CC08530C1
:1006500009F479C08AC0AFEAB1E01196EC91119724
:10066000EF71F0E080917900E155FE4F82831196A1
:100670008C9111978F5F11968C93809100018F5F01
:100680008093000174C0A3E2B1E01196EC91119740
:10069000EF71F0E080917900ED5DFE4F828311965D
:1006A0008C9111978F5F11968C93809100018F5FD1
:1006B000809300015CC0A6E4B1E01196EC91119723
:1006C000EF71F0E080917900EA5BFE4F8283119632
:1006D0008C9111978F5F11968C93809100018F5FA1
:1006E0008093000144C0ADE8B1E01196EC91119700
:1006F000EF71F0E080917900E357FE4F828311960D
:100700008C9111978F5F11968C93809100018F5F70
:10071000809300012CC0A9E6B1E01196EC911197ED
:10072000EF71F0E080917900E759FE4F82831196D6
:100730008C9111978F5F11968C93809100018F5F40
:100740008093000114C0A1E0B1E01196EC911197E3
:10075000EF71F0E080917900EF5FFE4F8283119698
:100760008C9111978F5F11968C931092000180915C
:1007700000010E94D202FF91EF91BF91AF919F9132
:100780008F917F916F915F914F913F912F910F903A
:100790000FBE0F901F9018951895DC016150A2F0C4
:1007A00020E030E0FD01E60FF11D67FDFA95908134
:1007B000290F311DA9014427452B19F020953095AB
:1007C000332761507AF702C020E030E0822F08958D
:1007D000DF92EF92FF920F931F93CF93DF93C8EEB8
:1007E000D1E08FEF9FEFDC0188839983AA83BB83DD
:1007F000D0900C02E0900D02F0900E0200910F02DA
:1008000010911002B0911102F0911202E0911302C6
:100810002D2D3E2D4F2D502F612F7B2F8F2F9E2F53
:10082000A1E00E94CD0520930C0230930D0240936D
:100830000E0250930F026093100270931102809386
:10084000120290931302DC82ED82FE820F831887DE
:10085000B987FA87EB8784E190E09D878C87E3ED89
:10086000F1E0838990E0998B888B848990E09B8B61
:100870008A8B818990E09D8B8C8B878590E09F8B04
:100880008E8B808990E0998F888F828990E09B8FF2
:100890008A8F81E090E09D8F8C8F8CE090E09F8F1D
:1008A0008E8F19A218A21BA21AA264E188EF91E010
:1008B0000E94CD0390E09F878E8764E2CE010E9464
:1008C0009705DF91CF911F910F91FF90EF90DF90EF
:1008D0000895FC0124812D3D19F486818093D30174
:1008E0000895CF93DF93CDB7DEB72C970FB6F8946A
:1008F000DEBF0FBECDBF0E9430018823A1F0CE0124
:1009000001960E943E01882371F08D818E3B29F46F
:1009100029813A812131310531F08D3D21F4CE011B
:1009200001960E94690480911902843620F48F5F39
:100930008093190202C01092190280911D02823325
:1009400020F48F5F80931D0202C010921D022C962E
:100950000FB6F894DEBF0FBECDBFDF91CF910895E3
:1009600082E08093B00087E08093B10080E58093BF
:10097000B300E0E7F0E08081826080830895CF9348
:10098000DF930E94710480911B02882309F47DC0CB
:1009900010921B0280911802813021F130F08230D8
:1009A00099F1833009F455C070C05E9A10920C0220
:1009B00010920D0210920E0210920F02109210026D
:1009C00010921102109212021092130280911A02D8
:1009D000811104C081E08093180257C083E08093A6
:1009E000180253C08091160291E0980F909316025E
:1009F000823330F09BB180E489278BB910921602C4
:100A000082E08093180241C08091160291E0980F15
:100A1000909316028A3030F09BB180E489278BB91D
:100A2000109216020E94B302C3EDD1E08C8B0E949B
:100A300094028B8B0E9475028A8B0E945602898BCE
:100A40000E943702888B0E9418028F870E94E80359
:100A50001CC08091160291E0980F90931602853089
:100A600030F09BB180E489278BB9109216028091F7
:100A70001C028F5F80931C02843108F0FFCF9BB172
:100A800080E489278BB910921802DF91CF910895E5
:100A90001F920F920FB60F9211248F9381E08093D3
:100AA0001B028F910F900FBE0F901F9018959FE023
:100AB00088E10FB6F894A895809360000FBE9093DC
:100AC0006000089583B7817F83BF089541E061E0AE
:100AD00080E190E00E94B3052FEF83ED90E3215079
:100AE00080409040E1F700C0000086E00E94BF0017
:100AF00088E690E00E949C010E94E9020E94620543
:100B00000E9457050E94B004569A7894A8950E94B6
:100B1000BF0483B7816083BF889583B78E7F83BF0F
:100B2000F5CF1F920F920FB60F921124FFCFCF93E4
:100B3000DF936623A9F0DC016150262F30E02F5FA0
:100B40003F4FAC01420F531FE0ECF0E0C6ECD0E0A9
:100B50002D91908195FFFDCF2883A417B507C1F78C
:100B6000DF91CF9108959093C5008093C400E62F44
:100B7000E170F0E0E295F295F07FFE27E07FFE273E
:100B8000242F217030E0220F331F220F331F220F3A
:100B9000331F2E2B2093C10008950024A7FD00943D
:100BA0002A0F301D401D501D601D701D801D901DA1
:060BB0000895F894FFCF48
:00000001FF
