S00D00004D444131372E73726563DD
S11300000C9450000C9479000C9479000C947900B1
S11300100C9479000C9479000C9479000C944F059D
S11300200C9479000C9479000C9479000C94790068
S11300300C9479000C9479000C94D7030C947900F7
S11300400C9479000C9479000C9479000C94790048
S11300500C9479000C9411030C9479000C9479009D
S11300600C9479000C94790000000000000000005A
S1130070000000000000000000000000000000007C
S1130080000000000000000004B6E704B6D304B684
S1130090C704B6C302900703AC8103AC800290008E
S11300A011241FBECFEFD8E0DEBFCDBF14BE0FB604
S11300B0F894A89580916000886180936000109204
S11300C060000FBE11E0A0E0B1E0E0E6FCE002C099
S11300D005900D92A835B107D9F722E0A8E5B1E063
S11300E001C01D92A637B207E1F70E946D050C947A
S11300F02E060C94CC051F93CF93DF931F92CDB79C
S1130100DEB7182F2A9882E069830E941D02812F8E
S11301100E941D026981862F0E941D022A9A0F9057
S1130120DF91CF911F910895CF93C82F2A9883E030
S11301300E941D028C2F0E941D028FEF0E941D023F
S11301402A9ACF9108951F93CF93DF9300D0CDB710
S1130150DEB7182F2A9885E04A8369830E941D021E
S1130160812F0E941D026981862F0E941D024A81EF
S1130170842F0E941D022A9A0F900F90DF91CF9135
S11301801F9108952A980E941D028FEF0E941D025C
S11301902A9A0895EF92FF920F931F93CF93DF93C0
S11301A0082F883010F080E05FC02A9A229A2D9898
S11301B02B982C98259A239A24980E9418022A98FE
S11301C080EC0E941D028FE99FE00197F1F700C0C7
S11301D000002A9A8FE39CE90197F1F700C0000020
S11301E02A9882E00E941D0288E20E941D0210E00B
S11301F0E801CC0FDD1FC00FD11FE12CF12CC85733
S1130200DF4FFE01EE0DFF1D84910E941D029FEF42
S1130210E91AF90A83E0E816F10499F783E00E94E9
S11302201D022A9A60E08DE00E947B002098289AA3
S113023060E08CE00E947B0089E20E949400D82F49
S1130240F801EE0FFF1FE00FF11FE757FF4FC491B6
S113025060E08FE00E947B00DC13A5CF8EE00E945B
S11302609400807ED9F781E0DF91CF911F910F91A7
S1130270FF90EF90089583B180958170089580EA8E
S11302800E94C200982F947581E0943509F480E0AF
S11302900895DF92EF92FF920F931F93CF93DF9312
S11302A0EC0180EB0E94C200E82E8074F82EE6FC7C
S11302B004C0E7FE43C084E901C080E92A980E9493
S11302C01D02CE010E94E20180FF0FC02A9A40E085
S11302D0FF2031F061E08CE20E94A300F12C2EC0DB
S11302E062E08CE20E94A30029C08FEF0E941D02ED
S11302F0E3FA222720F99A8120FB90F99A838F70E0
S1130300D82E8B8300E010E00D1550F48FEF0E947F
S11303101D02FE01E00FF11F84830F5F1F4FF4CF16
S11303202A9A40E0FF2011F061E001C062E08CE213
S11303300E94A3008E2D8770F82EF3948F2DDF91E9
S1130340CF911F910F91FF90EF90DF9008950F933D
S11303501F93CF93DF93EC0140E860EE8FE00E949F
S1130360A3008EE00E949400807E8038D1F764E080
S113037080E60E947B0060E080E70E947B0010E042
S11303802A9882E00E941D02812F0E941D0200E033
S1130390103211F4083048F42196FE01319784910B
S11303A00E941D020F5F0C3099F72A9A105F1033D8
S11303B039F740E060EE8FE0DF91CF911F910F910C
S11303C00C94A3001F93CF93DF93EC018FEF0E9453
S11303D01D02182F8FEF0E941D02982F8FEF93FF9D
S11303E007C00E941D028FEF0E941D0281E01CC005
S11303F08EBD88E0189F90011124398328830DB4A1
S113040007FEFDCF8EB58FEF8EBD8881292F2295F3
S113041026952770822B88830DB407FEFDCF8EB5F9
S1130420892F807194FD82E0DF91CF911F9108950F
S113043081E58CBD81E08DBD08958EBD0DB407FEB0
S1130440FDCF8EB5089520E230E080E090E0A7E093
S1130450B2E04C91F901E40FF11DEF71FF27E95F60
S1130460FD4F4281840F911D2150310991F79695DA
S11304708795929582958F7089279F70892780939D
S11304802902089520E230E080E090E0ABE7B1E09B
S11304904C91F901E40FF11DEF71FF27E558FE4F70
S11304A04281840F911D2150310991F796958795CA
S11304B0929582958F7089279F70892780939D01DB
S11304C0089520E230E080E090E0AEE9B1E04C91A4
S11304D0F901E40FF11DEF71FF27E256FE4F42814F
S11304E0840F911D2150310991F796958795929526
S11304F082958F7089279F7089278093E3010895DF
S113050020E230E080E090E0A5EEB1E04C91F9010A
S1130510E40FF11DEF71FF27EB51FE4F4281840F71
S1130520911D2150310991F7969587959295829561
S11305308F7089279F70892780932A02089520E26B
S113054030E080E090E0A1ECB1E04C91F901E40FDF
S1130550F11DEF71FF27EF53FE4F4281840F911D70
S11305602150310991F796958795929582958F70D0
S113057089279F7089278093C001089520E230E085
S113058080E090E0A9E5B1E04C91F901E40FF11DA0
S1130590EF71FF27E75AFE4F4281840F911D2150CE
S11305A0310991F796958795929582958F70892751
S11305B09F7089278093E4010895CF93DF931F925E
S11305C0CDB7DEB78983898180935801ECE7F0E0E9
S11305D0808190915801887F892B80838091580174
S11305E00F90DF91CF91089518B817B887E08093E2
S11305F07E0080E680937C0083E080937B0081E032
S11306000E94DD028FEE80937A0082E084BD84E054
S113061085BD84E187BDEEE6F0E080818260808361
S113062008951F920F920FB60F9211242F933F93A8
S11306304F935F936F937F938F939F93AF93BF93E6
S1130640EF93FF9380915801823009F43FC028F45E
S1130650882361F0813011F193C0843009F466C0BD
S113066008F44CC0853009F479C08AC0A7E0B2E030
S11306701196EC911197EF71F0E080917900E95FA8
S1130680FD4F828311968C9111978F5F11968C93F5
S1130690809158018F5F8093580174C0ABE7B1E03B
S11306A01196EC911197EF71F0E080917900E55883
S11306B0FE4F828311968C9111978F5F11968C93C4
S11306C0809158018F5F809358015CC0AEE9B1E01E
S11306D01196EC911197EF71F0E080917900E25658
S11306E0FE4F828311968C9111978F5F11968C9394
S11306F0809158018F5F8093580144C0A5EEB1E00A
S11307001196EC911197EF71F0E080917900EB5123
S1130710FE4F828311968C9111978F5F11968C9363
S1130720809158018F5F809358012CC0A1ECB1E0F7
S11307301196EC911197EF71F0E080917900EF53ED
S1130740FE4F828311968C9111978F5F11968C9333
S1130750809158018F5F8093580114C0A9E5B1E0DE
S11307601196EC911197EF71F0E080917900E75ABE
S1130770FE4F828311968C9111978F5F11968C9303
S113078010925801809158010E94DD02FF91EF916F
S1130790BF91AF919F918F917F916F915F914F9195
S11307A03F912F910F900FBE0F901F9018951895A1
S11307B0DC016150A2F020E030E0FD01E60FF11D04
S11307C067FDFA959081290F311DA9014427452B16
S11307D019F020953095332761507AF702C020E054
S11307E030E0822F0895DF92EF92FF920F931F93D0
S11307F0CF93DF93C0E4D2E08FEF9FEFDC018883D7
S11308009983AA83BB83D0906402E0906502F09040
S113081066020091670210916802B0916902F0913A
S11308206A02E0916B022D2D3E2D4F2D502F612F2A
S11308307B2F8F2F9E2FA1E00E942206209364021B
S11308403093650240936602509367026093680296
S11308507093690280936A0290936B02DC82ED824A
S1130860FE820F831887B987FA87EB8784E190E0CB
S11308709D878C87EBE2F2E0838990E0998B888BEB
S1130880848990E09B8B8A8B818990E09D8B8C8BF3
S1130890878590E09F8B8E8B808990E0998F888FDD
S11308A0828990E09B8F8A8F1D8E1C8E1F8E1E8ED8
S11308B019A218A21BA21AA264E180E592E00E9488
S11308C0D80390E09F878E8764E2CE010E94EC05F6
S11308D0DF91CF911F910F91FF90EF90DF900895DA
S11308E0FC0124812D3D19F4868180932B02089507
S11308F0CF93DF93CDB7DEB72C970FB6F894DEBF56
S11309000FBECDBF0E943B018823A1F0CE0101960A
S11309100E944901882371F08D818E3B29F429813D
S11309203A812131310531F08D3D21F4CE0101961A
S11309300E94700480917102843620F48F5F80934A
S1130940710202C01092710280917502823320F408
S11309508F5F8093750202C0109275022C960FB6B9
S1130960F894DEBF0FBECDBFDF91CF91089582E032
S11309708093B00087E08093B10080E58093B3005A
S1130980E0E7F0E08081826080830895CF93DF9375
S11309900E94780480917302882309F47DC0109228
S11309A0730280917002813021F130F0823099F12C
S11309B0833009F455C070C05E9A1092640210929C
S11309C065021092660210926702109268021092F9
S11309D0690210926A0210926B0280917202811174
S11309E004C081E08093700257C083E0809370025A
S11309F053C080916E0291E0980F90936E028233FF
S1130A0030F09BB180E489278BB910926E0282E0AA
S1130A108093700241C080916E0291E0980F909390
S1130A206E028A3030F09BB180E489278BB9109232
S1130A306E020E94BE02CBE2D2E08C8B0E949F0227
S1130A408B8B0E9480028A8B0E946102898B0E9498
S1130A504202888B0E9423028F870E94F3031CC0EA
S1130A6080916E0291E0980F90936E02853030F081
S1130A709BB180E489278BB910926E028091740235
S1130A808F5F80937402843108F0FFCF9BB180E4C0
S1130A9089278BB910927002DF91CF9108951F922C
S1130AA00F920FB60F9211248F9381E080937302FB
S1130AB08F910F900FBE0F901F9018959FE088E1C3
S1130AC00FB6F894A895809360000FBE90936000D1
S1130AD0089583B7817F83BF089541E061E080E199
S1130AE090E00E94080680E091E00E94D2052FEF7A
S1130AF083ED90E3215080409040E1F700C0000076
S1130B0081E191E00E94D20586E00E94CA008BE058
S1130B1091E00E94D20582E291E00E94D20588E62B
S1130B2090E00E94A7018BE091E00E94D20581E34E
S1130B3091E00E94D2050E94F4028BE091E00E94B1
S1130B40D20588E391E00E94D2050E9469058BE0FA
S1130B5091E00E94D20581E491E00E94D2050E94B6
S1130B605E058BE091E00E94D2058DE491E00E9445
S1130B70D2050E94B7048BE091E00E94D205569AF8
S1130B807894A8950E94C60483B7816083BF889532
S1130B9083B78E7F83BFF5CF1F920F920FB60F924C
S1130BA01124FFCFCF93DF93EC012881222389F016
S1130BB030E0E0ECF0E046EC50E03F5F908195FFE0
S1130BC0FDCFDA012C93DE01A30FB11D2C9121116D
S1130BD0F4CFDF91CF910895CF93DF936623A9F0EB
S1130BE0DC016150262F30E02F5F3F4FAC01420FF4
S1130BF0531FE0ECF0E0C6ECD0E02D91908195FF1E
S1130C00FDCF2883A417B507C1F7DF91CF910895CD
S1130C109093C5008093C400E62FE170F0E0E29564
S1130C20F295F07FFE27E07FFE27242F217030E02D
S1130C30220F331F220F331F220F331F2E2B20931B
S1130C40C10008950024A7FD00942A0F301D401D03
S1130C50501D601D701D801D901D0895F894FFCFD8
S1130C600A0A0A55534152542E2E2E204F4B210A64
S1130C700043414E20283132356B627073292E2E89
S1130C802E0043414E2066696C746572732E2E2EBD
S1130C90004144432E2E2E00534C4545502E2E2EFB
S1130CA0005741544348444F472E2E2E004D414394
S10B0CB048494E452E2E2E008A
S9030000FC
